{
  "contractName": "BatteryEvalContract",
  "abi": [
    {
      "inputs": [],
      "stateMutability": "nonpayable",
      "type": "constructor"
    },
    {
      "anonymous": false,
      "inputs": [
        {
          "indexed": true,
          "internalType": "address",
          "name": "owner",
          "type": "address"
        },
        {
          "indexed": true,
          "internalType": "address",
          "name": "approved",
          "type": "address"
        },
        {
          "indexed": true,
          "internalType": "uint256",
          "name": "tokenId",
          "type": "uint256"
        }
      ],
      "name": "Approval",
      "type": "event"
    },
    {
      "anonymous": false,
      "inputs": [
        {
          "indexed": true,
          "internalType": "address",
          "name": "owner",
          "type": "address"
        },
        {
          "indexed": true,
          "internalType": "address",
          "name": "operator",
          "type": "address"
        },
        {
          "indexed": false,
          "internalType": "bool",
          "name": "approved",
          "type": "bool"
        }
      ],
      "name": "ApprovalForAll",
      "type": "event"
    },
    {
      "anonymous": false,
      "inputs": [
        {
          "indexed": false,
          "internalType": "uint256",
          "name": "batteryId",
          "type": "uint256"
        },
        {
          "indexed": false,
          "internalType": "string",
          "name": "batteryOwner",
          "type": "string"
        },
        {
          "indexed": false,
          "internalType": "string",
          "name": "batteryManuFacturer",
          "type": "string"
        },
        {
          "indexed": false,
          "internalType": "string",
          "name": "batteryModelName",
          "type": "string"
        },
        {
          "indexed": false,
          "internalType": "string",
          "name": "batteryManuFactureDate",
          "type": "string"
        },
        {
          "indexed": false,
          "internalType": "string",
          "name": "certiFileName",
          "type": "string"
        }
      ],
      "name": "NewBattery",
      "type": "event"
    },
    {
      "anonymous": false,
      "inputs": [
        {
          "indexed": true,
          "internalType": "address",
          "name": "from",
          "type": "address"
        },
        {
          "indexed": true,
          "internalType": "address",
          "name": "to",
          "type": "address"
        },
        {
          "indexed": true,
          "internalType": "uint256",
          "name": "tokenId",
          "type": "uint256"
        }
      ],
      "name": "Transfer",
      "type": "event"
    },
    {
      "inputs": [
        {
          "internalType": "address",
          "name": "to",
          "type": "address"
        },
        {
          "internalType": "uint256",
          "name": "tokenId",
          "type": "uint256"
        }
      ],
      "name": "approve",
      "outputs": [],
      "stateMutability": "nonpayable",
      "type": "function"
    },
    {
      "inputs": [
        {
          "internalType": "address",
          "name": "owner",
          "type": "address"
        }
      ],
      "name": "balanceOf",
      "outputs": [
        {
          "internalType": "uint256",
          "name": "",
          "type": "uint256"
        }
      ],
      "stateMutability": "view",
      "type": "function",
      "constant": true
    },
    {
      "inputs": [],
      "name": "baseURI",
      "outputs": [
        {
          "internalType": "string",
          "name": "",
          "type": "string"
        }
      ],
      "stateMutability": "view",
      "type": "function",
      "constant": true
    },
    {
      "inputs": [
        {
          "internalType": "uint256",
          "name": "",
          "type": "uint256"
        }
      ],
      "name": "batteries",
      "outputs": [
        {
          "internalType": "string",
          "name": "batteryOwner",
          "type": "string"
        },
        {
          "internalType": "string",
          "name": "batteryManuFacturer",
          "type": "string"
        },
        {
          "internalType": "string",
          "name": "batteryModelName",
          "type": "string"
        },
        {
          "internalType": "string",
          "name": "batteryManuFactureDate",
          "type": "string"
        },
        {
          "internalType": "string",
          "name": "certiFileName",
          "type": "string"
        }
      ],
      "stateMutability": "view",
      "type": "function",
      "constant": true
    },
    {
      "inputs": [
        {
          "internalType": "uint256",
          "name": "",
          "type": "uint256"
        }
      ],
      "name": "batteryToOwner",
      "outputs": [
        {
          "internalType": "address",
          "name": "",
          "type": "address"
        }
      ],
      "stateMutability": "view",
      "type": "function",
      "constant": true
    },
    {
      "inputs": [
        {
          "internalType": "string",
          "name": "",
          "type": "string"
        }
      ],
      "name": "filenameToBatteryEvalResult",
      "outputs": [
        {
          "internalType": "uint256",
          "name": "",
          "type": "uint256"
        }
      ],
      "stateMutability": "view",
      "type": "function",
      "constant": true
    },
    {
      "inputs": [
        {
          "internalType": "uint256",
          "name": "tokenId",
          "type": "uint256"
        }
      ],
      "name": "getApproved",
      "outputs": [
        {
          "internalType": "address",
          "name": "",
          "type": "address"
        }
      ],
      "stateMutability": "view",
      "type": "function",
      "constant": true
    },
    {
      "inputs": [
        {
          "internalType": "address",
          "name": "owner",
          "type": "address"
        },
        {
          "internalType": "address",
          "name": "operator",
          "type": "address"
        }
      ],
      "name": "isApprovedForAll",
      "outputs": [
        {
          "internalType": "bool",
          "name": "",
          "type": "bool"
        }
      ],
      "stateMutability": "view",
      "type": "function",
      "constant": true
    },
    {
      "inputs": [],
      "name": "name",
      "outputs": [
        {
          "internalType": "string",
          "name": "",
          "type": "string"
        }
      ],
      "stateMutability": "view",
      "type": "function",
      "constant": true
    },
    {
      "inputs": [
        {
          "internalType": "uint256",
          "name": "tokenId",
          "type": "uint256"
        }
      ],
      "name": "ownerOf",
      "outputs": [
        {
          "internalType": "address",
          "name": "",
          "type": "address"
        }
      ],
      "stateMutability": "view",
      "type": "function",
      "constant": true
    },
    {
      "inputs": [
        {
          "internalType": "address",
          "name": "from",
          "type": "address"
        },
        {
          "internalType": "address",
          "name": "to",
          "type": "address"
        },
        {
          "internalType": "uint256",
          "name": "tokenId",
          "type": "uint256"
        }
      ],
      "name": "safeTransferFrom",
      "outputs": [],
      "stateMutability": "nonpayable",
      "type": "function"
    },
    {
      "inputs": [
        {
          "internalType": "address",
          "name": "from",
          "type": "address"
        },
        {
          "internalType": "address",
          "name": "to",
          "type": "address"
        },
        {
          "internalType": "uint256",
          "name": "tokenId",
          "type": "uint256"
        },
        {
          "internalType": "bytes",
          "name": "_data",
          "type": "bytes"
        }
      ],
      "name": "safeTransferFrom",
      "outputs": [],
      "stateMutability": "nonpayable",
      "type": "function"
    },
    {
      "inputs": [
        {
          "internalType": "address",
          "name": "operator",
          "type": "address"
        },
        {
          "internalType": "bool",
          "name": "approved",
          "type": "bool"
        }
      ],
      "name": "setApprovalForAll",
      "outputs": [],
      "stateMutability": "nonpayable",
      "type": "function"
    },
    {
      "inputs": [
        {
          "internalType": "bytes4",
          "name": "interfaceId",
          "type": "bytes4"
        }
      ],
      "name": "supportsInterface",
      "outputs": [
        {
          "internalType": "bool",
          "name": "",
          "type": "bool"
        }
      ],
      "stateMutability": "view",
      "type": "function",
      "constant": true
    },
    {
      "inputs": [],
      "name": "symbol",
      "outputs": [
        {
          "internalType": "string",
          "name": "",
          "type": "string"
        }
      ],
      "stateMutability": "view",
      "type": "function",
      "constant": true
    },
    {
      "inputs": [
        {
          "internalType": "uint256",
          "name": "index",
          "type": "uint256"
        }
      ],
      "name": "tokenByIndex",
      "outputs": [
        {
          "internalType": "uint256",
          "name": "",
          "type": "uint256"
        }
      ],
      "stateMutability": "view",
      "type": "function",
      "constant": true
    },
    {
      "inputs": [
        {
          "internalType": "address",
          "name": "owner",
          "type": "address"
        },
        {
          "internalType": "uint256",
          "name": "index",
          "type": "uint256"
        }
      ],
      "name": "tokenOfOwnerByIndex",
      "outputs": [
        {
          "internalType": "uint256",
          "name": "",
          "type": "uint256"
        }
      ],
      "stateMutability": "view",
      "type": "function",
      "constant": true
    },
    {
      "inputs": [
        {
          "internalType": "uint256",
          "name": "tokenId",
          "type": "uint256"
        }
      ],
      "name": "tokenURI",
      "outputs": [
        {
          "internalType": "string",
          "name": "",
          "type": "string"
        }
      ],
      "stateMutability": "view",
      "type": "function",
      "constant": true
    },
    {
      "inputs": [],
      "name": "totalSupply",
      "outputs": [
        {
          "internalType": "uint256",
          "name": "",
          "type": "uint256"
        }
      ],
      "stateMutability": "view",
      "type": "function",
      "constant": true
    },
    {
      "inputs": [
        {
          "internalType": "address",
          "name": "from",
          "type": "address"
        },
        {
          "internalType": "address",
          "name": "to",
          "type": "address"
        },
        {
          "internalType": "uint256",
          "name": "tokenId",
          "type": "uint256"
        }
      ],
      "name": "transferFrom",
      "outputs": [],
      "stateMutability": "nonpayable",
      "type": "function"
    },
    {
      "inputs": [
        {
          "internalType": "string",
          "name": "_owner",
          "type": "string"
        },
        {
          "internalType": "string",
          "name": "_manufacturer",
          "type": "string"
        },
        {
          "internalType": "string",
          "name": "_modelName",
          "type": "string"
        },
        {
          "internalType": "string",
          "name": "_manufactureDate",
          "type": "string"
        },
        {
          "internalType": "string",
          "name": "_certiFile",
          "type": "string"
        }
      ],
      "name": "addBatteryEvalInfo",
      "outputs": [],
      "stateMutability": "nonpayable",
      "type": "function"
    },
    {
      "inputs": [],
      "name": "getBatteriesCount",
      "outputs": [
        {
          "internalType": "uint256",
          "name": "count",
          "type": "uint256"
        }
      ],
      "stateMutability": "view",
      "type": "function",
      "constant": true
    },
    {
      "inputs": [
        {
          "internalType": "uint256",
          "name": "_batteryId",
          "type": "uint256"
        }
      ],
      "name": "getBatteryInfoById",
      "outputs": [
        {
          "internalType": "string",
          "name": "bOnwer",
          "type": "string"
        },
        {
          "internalType": "string",
          "name": "bManuFacturer",
          "type": "string"
        },
        {
          "internalType": "string",
          "name": "bModelName",
          "type": "string"
        },
        {
          "internalType": "string",
          "name": "bManuFactureDate",
          "type": "string"
        },
        {
          "internalType": "string",
          "name": "cFileName",
          "type": "string"
        }
      ],
      "stateMutability": "view",
      "type": "function",
      "constant": true
    },
    {
      "inputs": [
        {
          "internalType": "string",
          "name": "a",
          "type": "string"
        },
        {
          "internalType": "string",
          "name": "b",
          "type": "string"
        }
      ],
      "name": "compareStrings",
      "outputs": [
        {
          "internalType": "bool",
          "name": "",
          "type": "bool"
        }
      ],
      "stateMutability": "pure",
      "type": "function",
      "constant": true
    }
  ],
  "bytecode": "0x60806040523480156200001157600080fd5b506040518060400160405280601381526020017f426174746572794576616c436f6e7472616374000000000000000000000000008152506040518060400160405280600381526020017f4245430000000000000000000000000000000000000000000000000000000000815250620000966301ffc9a760e01b6200011860201b60201c565b8160069080519060200190620000ae92919062000221565b508060079080519060200190620000c792919062000221565b50620000e06380ac58cd60e01b6200011860201b60201c565b620000f8635b5e139f60e01b6200011860201b60201c565b6200011063780e9d6360e01b6200011860201b60201c565b5050620002d0565b63ffffffff60e01b817bffffffffffffffffffffffffffffffffffffffffffffffffffffffff19161415620001b5576040517f08c379a000000000000000000000000000000000000000000000000000000000815260040180806020018281038252601c8152602001807f4552433136353a20696e76616c696420696e746572666163652069640000000081525060200191505060405180910390fd5b6001600080837bffffffffffffffffffffffffffffffffffffffffffffffffffffffff19167bffffffffffffffffffffffffffffffffffffffffffffffffffffffff1916815260200190815260200160002060006101000a81548160ff02191690831515021790555050565b828054600181600116156101000203166002900490600052602060002090601f016020900481019282601f106200026457805160ff191683800117855562000295565b8280016001018555821562000295579182015b828111156200029457825182559160200191906001019062000277565b5b509050620002a49190620002a8565b5090565b620002cd91905b80821115620002c9576000816000905550600101620002af565b5090565b90565b613f4080620002e06000396000f3fe608060405234801561001057600080fd5b50600436106101585760003560e01c80635f392c90116100c3578063a22cb4651161007c578063a22cb46514610f6d578063b88d4fde14610fbd578063bc859971146110c2578063bed34bba146110e0578063c87b56dd1461124a578063e985e9c5146112f157610158565b80635f392c9014610adc5780636352211e14610d335780636c0360eb14610da157806370a0823114610e245780637991177314610e7c57806395d89b4114610eea57610158565b806323b872dd1161011557806323b872dd146106365780632f745c59146106a45780633a7561711461070657806342842e0e146107d55780634f6ccce7146108435780635d53982b1461088557610158565b806301ffc9a71461015d578063045b1a36146101c257806306fdde03146104d9578063081812fc1461055c578063095ea7b3146105ca57806318160ddd14610618575b600080fd5b6101a86004803603602081101561017357600080fd5b8101908080357bffffffffffffffffffffffffffffffffffffffffffffffffffffffff1916906020019092919050505061136d565b604051808215151515815260200191505060405180910390f35b6104d7600480360360a08110156101d857600080fd5b81019080803590602001906401000000008111156101f557600080fd5b82018360208201111561020757600080fd5b8035906020019184600183028401116401000000008311171561022957600080fd5b91908080601f016020809104026020016040519081016040528093929190818152602001838380828437600081840152601f19601f8201169050808301925050505050505091929192908035906020019064010000000081111561028c57600080fd5b82018360208201111561029e57600080fd5b803590602001918460018302840111640100000000831117156102c057600080fd5b91908080601f016020809104026020016040519081016040528093929190818152602001838380828437600081840152601f19601f8201169050808301925050505050505091929192908035906020019064010000000081111561032357600080fd5b82018360208201111561033557600080fd5b8035906020019184600183028401116401000000008311171561035757600080fd5b91908080601f016020809104026020016040519081016040528093929190818152602001838380828437600081840152601f19601f820116905080830192505050505050509192919290803590602001906401000000008111156103ba57600080fd5b8201836020820111156103cc57600080fd5b803590602001918460018302840111640100000000831117156103ee57600080fd5b91908080601f016020809104026020016040519081016040528093929190818152602001838380828437600081840152601f19601f8201169050808301925050505050505091929192908035906020019064010000000081111561045157600080fd5b82018360208201111561046357600080fd5b8035906020019184600183028401116401000000008311171561048557600080fd5b91908080601f016020809104026020016040519081016040528093929190818152602001838380828437600081840152601f19601f8201169050808301925050505050505091929192905050506113d4565b005b6104e16117e6565b6040518080602001828103825283818151815260200191508051906020019080838360005b83811015610521578082015181840152602081019050610506565b50505050905090810190601f16801561054e5780820380516001836020036101000a031916815260200191505b509250505060405180910390f35b6105886004803603602081101561057257600080fd5b8101908080359060200190929190505050611888565b604051808273ffffffffffffffffffffffffffffffffffffffff1673ffffffffffffffffffffffffffffffffffffffff16815260200191505060405180910390f35b610616600480360360408110156105e057600080fd5b81019080803573ffffffffffffffffffffffffffffffffffffffff16906020019092919080359060200190929190505050611923565b005b610620611a67565b6040518082815260200191505060405180910390f35b6106a26004803603606081101561064c57600080fd5b81019080803573ffffffffffffffffffffffffffffffffffffffff169060200190929190803573ffffffffffffffffffffffffffffffffffffffff16906020019092919080359060200190929190505050611a78565b005b6106f0600480360360408110156106ba57600080fd5b81019080803573ffffffffffffffffffffffffffffffffffffffff16906020019092919080359060200190929190505050611aee565b6040518082815260200191505060405180910390f35b6107bf6004803603602081101561071c57600080fd5b810190808035906020019064010000000081111561073957600080fd5b82018360208201111561074b57600080fd5b8035906020019184600183028401116401000000008311171561076d57600080fd5b91908080601f016020809104026020016040519081016040528093929190818152602001838380828437600081840152601f19601f820116905080830192505050505050509192919290505050611b49565b6040518082815260200191505060405180910390f35b610841600480360360608110156107eb57600080fd5b81019080803573ffffffffffffffffffffffffffffffffffffffff169060200190929190803573ffffffffffffffffffffffffffffffffffffffff16906020019092919080359060200190929190505050611b77565b005b61086f6004803603602081101561085957600080fd5b8101908080359060200190929190505050611b97565b6040518082815260200191505060405180910390f35b6108b16004803603602081101561089b57600080fd5b8101908080359060200190929190505050611bba565b60405180806020018060200180602001806020018060200186810386528b818151815260200191508051906020019080838360005b838110156109015780820151818401526020810190506108e6565b50505050905090810190601f16801561092e5780820380516001836020036101000a031916815260200191505b5086810385528a818151815260200191508051906020019080838360005b8381101561096757808201518184015260208101905061094c565b50505050905090810190601f1680156109945780820380516001836020036101000a031916815260200191505b50868103845289818151815260200191508051906020019080838360005b838110156109cd5780820151818401526020810190506109b2565b50505050905090810190601f1680156109fa5780820380516001836020036101000a031916815260200191505b50868103835288818151815260200191508051906020019080838360005b83811015610a33578082015181840152602081019050610a18565b50505050905090810190601f168015610a605780820380516001836020036101000a031916815260200191505b50868103825287818151815260200191508051906020019080838360005b83811015610a99578082015181840152602081019050610a7e565b50505050905090810190601f168015610ac65780820380516001836020036101000a031916815260200191505b509a505050505050505050505060405180910390f35b610b0860048036036020811015610af257600080fd5b8101908080359060200190929190505050611fe2565b60405180806020018060200180602001806020018060200186810386528b818151815260200191508051906020019080838360005b83811015610b58578082015181840152602081019050610b3d565b50505050905090810190601f168015610b855780820380516001836020036101000a031916815260200191505b5086810385528a818151815260200191508051906020019080838360005b83811015610bbe578082015181840152602081019050610ba3565b50505050905090810190601f168015610beb5780820380516001836020036101000a031916815260200191505b50868103845289818151815260200191508051906020019080838360005b83811015610c24578082015181840152602081019050610c09565b50505050905090810190601f168015610c515780820380516001836020036101000a031916815260200191505b50868103835288818151815260200191508051906020019080838360005b83811015610c8a578082015181840152602081019050610c6f565b50505050905090810190601f168015610cb75780820380516001836020036101000a031916815260200191505b50868103825287818151815260200191508051906020019080838360005b83811015610cf0578082015181840152602081019050610cd5565b50505050905090810190601f168015610d1d5780820380516001836020036101000a031916815260200191505b509a505050505050505050505060405180910390f35b610d5f60048036036020811015610d4957600080fd5b810190808035906020019092919050505061231d565b604051808273ffffffffffffffffffffffffffffffffffffffff1673ffffffffffffffffffffffffffffffffffffffff16815260200191505060405180910390f35b610da9612354565b6040518080602001828103825283818151815260200191508051906020019080838360005b83811015610de9578082015181840152602081019050610dce565b50505050905090810190601f168015610e165780820380516001836020036101000a031916815260200191505b509250505060405180910390f35b610e6660048036036020811015610e3a57600080fd5b81019080803573ffffffffffffffffffffffffffffffffffffffff1690602001909291905050506123f6565b6040518082815260200191505060405180910390f35b610ea860048036036020811015610e9257600080fd5b81019080803590602001909291905050506124cb565b604051808273ffffffffffffffffffffffffffffffffffffffff1673ffffffffffffffffffffffffffffffffffffffff16815260200191505060405180910390f35b610ef26124fe565b6040518080602001828103825283818151815260200191508051906020019080838360005b83811015610f32578082015181840152602081019050610f17565b50505050905090810190601f168015610f5f5780820380516001836020036101000a031916815260200191505b509250505060405180910390f35b610fbb60048036036040811015610f8357600080fd5b81019080803573ffffffffffffffffffffffffffffffffffffffff1690602001909291908035151590602001909291905050506125a0565b005b6110c060048036036080811015610fd357600080fd5b81019080803573ffffffffffffffffffffffffffffffffffffffff169060200190929190803573ffffffffffffffffffffffffffffffffffffffff169060200190929190803590602001909291908035906020019064010000000081111561103a57600080fd5b82018360208201111561104c57600080fd5b8035906020019184600183028401116401000000008311171561106e57600080fd5b91908080601f016020809104026020016040519081016040528093929190818152602001838380828437600081840152601f19601f820116905080830192505050505050509192919290505050612758565b005b6110ca6127d0565b6040518082815260200191505060405180910390f35b611230600480360360408110156110f657600080fd5b810190808035906020019064010000000081111561111357600080fd5b82018360208201111561112557600080fd5b8035906020019184600183028401116401000000008311171561114757600080fd5b91908080601f016020809104026020016040519081016040528093929190818152602001838380828437600081840152601f19601f820116905080830192505050505050509192919290803590602001906401000000008111156111aa57600080fd5b8201836020820111156111bc57600080fd5b803590602001918460018302840111640100000000831117156111de57600080fd5b91908080601f016020809104026020016040519081016040528093929190818152602001838380828437600081840152601f19601f8201169050808301925050505050505091929192905050506127dd565b604051808215151515815260200191505060405180910390f35b6112766004803603602081101561126057600080fd5b81019080803590602001909291905050506128cc565b6040518080602001828103825283818151815260200191508051906020019080838360005b838110156112b657808201518184015260208101905061129b565b50505050905090810190601f1680156112e35780820380516001836020036101000a031916815260200191505b509250505060405180910390f35b6113536004803603604081101561130757600080fd5b81019080803573ffffffffffffffffffffffffffffffffffffffff169060200190929190803573ffffffffffffffffffffffffffffffffffffffff169060200190929190505050612bb5565b604051808215151515815260200191505060405180910390f35b6000806000837bffffffffffffffffffffffffffffffffffffffffffffffffffffffff19167bffffffffffffffffffffffffffffffffffffffffffffffffffffffff1916815260200190815260200160002060009054906101000a900460ff169050919050565b600a6040518060a001604052808781526020018681526020018581526020018481526020018381525090806001815401808255809150506001900390600052602060002090600502016000909190919091506000820151816000019080519060200190611442929190613c3e565b50602082015181600101908051906020019061145f929190613c3e565b50604082015181600201908051906020019061147c929190613c3e565b506060820151816003019080519060200190611499929190613c3e565b5060808201518160040190805190602001906114b6929190613c3e565b50505060006001600a8054905003905033600b600083815260200190815260200160002060006101000a81548173ffffffffffffffffffffffffffffffffffffffff021916908373ffffffffffffffffffffffffffffffffffffffff16021790555080600c836040518082805190602001908083835b6020831061154f578051825260208201915060208101905060208303925061152c565b6001836020036101000a0380198251168184511680821785525050505050509050019150509081526020016040518091039020819055507fe7628ede85bc4a8a467dbfc6e6e8affb427fc206ff99ba6c3622668dc6bb00b181878787878760405180878152602001806020018060200180602001806020018060200186810386528b818151815260200191508051906020019080838360005b838110156116035780820151818401526020810190506115e8565b50505050905090810190601f1680156116305780820380516001836020036101000a031916815260200191505b5086810385528a818151815260200191508051906020019080838360005b8381101561166957808201518184015260208101905061164e565b50505050905090810190601f1680156116965780820380516001836020036101000a031916815260200191505b50868103845289818151815260200191508051906020019080838360005b838110156116cf5780820151818401526020810190506116b4565b50505050905090810190601f1680156116fc5780820380516001836020036101000a031916815260200191505b50868103835288818151815260200191508051906020019080838360005b8381101561173557808201518184015260208101905061171a565b50505050905090810190601f1680156117625780820380516001836020036101000a031916815260200191505b50868103825287818151815260200191508051906020019080838360005b8381101561179b578082015181840152602081019050611780565b50505050905090810190601f1680156117c85780820380516001836020036101000a031916815260200191505b509b50505050505050505050505060405180910390a1505050505050565b606060068054600181600116156101000203166002900480601f01602080910402602001604051908101604052809291908181526020018280546001816001161561010002031660029004801561187e5780601f106118535761010080835404028352916020019161187e565b820191906000526020600020905b81548152906001019060200180831161186157829003601f168201915b5050505050905090565b600061189382612c49565b6118e8576040517f08c379a000000000000000000000000000000000000000000000000000000000815260040180806020018281038252602c815260200180613e35602c913960400191505060405180910390fd5b6004600083815260200190815260200160002060009054906101000a900473ffffffffffffffffffffffffffffffffffffffff169050919050565b600061192e8261231d565b90508073ffffffffffffffffffffffffffffffffffffffff168373ffffffffffffffffffffffffffffffffffffffff1614156119b5576040517f08c379a0000000000000000000000000000000000000000000000000000000008152600401808060200182810382526021815260200180613eb96021913960400191505060405180910390fd5b8073ffffffffffffffffffffffffffffffffffffffff166119d4612c66565b73ffffffffffffffffffffffffffffffffffffffff161480611a035750611a02816119fd612c66565b612bb5565b5b611a58576040517f08c379a0000000000000000000000000000000000000000000000000000000008152600401808060200182810382526038815260200180613d886038913960400191505060405180910390fd5b611a628383612c6e565b505050565b6000611a736002612d27565b905090565b611a89611a83612c66565b82612d3c565b611ade576040517f08c379a0000000000000000000000000000000000000000000000000000000008152600401808060200182810382526031815260200180613eda6031913960400191505060405180910390fd5b611ae9838383612e30565b505050565b6000611b4182600160008673ffffffffffffffffffffffffffffffffffffffff1673ffffffffffffffffffffffffffffffffffffffff16815260200190815260200160002061307390919063ffffffff16565b905092915050565b600c818051602081018201805184825260208301602085012081835280955050505050506000915090505481565b611b9283838360405180602001604052806000815250612758565b505050565b600080611bae83600261308d90919063ffffffff16565b50905080915050919050565b6060806060806060600a805490508610611c3c576040517f08c379a000000000000000000000000000000000000000000000000000000000815260040180806020018281038252600f8152602001807f57726f6e672049442076616c75652e000000000000000000000000000000000081525060200191505060405180910390fd5b600a8681548110611c4957fe5b90600052602060002090600502016000018054600181600116156101000203166002900480601f016020809104026020016040519081016040528092919081815260200182805460018160011615610100020316600290048015611cee5780601f10611cc357610100808354040283529160200191611cee565b820191906000526020600020905b815481529060010190602001808311611cd157829003601f168201915b50505050509450600a8681548110611d0257fe5b90600052602060002090600502016001018054600181600116156101000203166002900480601f016020809104026020016040519081016040528092919081815260200182805460018160011615610100020316600290048015611da75780601f10611d7c57610100808354040283529160200191611da7565b820191906000526020600020905b815481529060010190602001808311611d8a57829003601f168201915b50505050509350600a8681548110611dbb57fe5b90600052602060002090600502016002018054600181600116156101000203166002900480601f016020809104026020016040519081016040528092919081815260200182805460018160011615610100020316600290048015611e605780601f10611e3557610100808354040283529160200191611e60565b820191906000526020600020905b815481529060010190602001808311611e4357829003601f168201915b50505050509250600a8681548110611e7457fe5b90600052602060002090600502016003018054600181600116156101000203166002900480601f016020809104026020016040519081016040528092919081815260200182805460018160011615610100020316600290048015611f195780601f10611eee57610100808354040283529160200191611f19565b820191906000526020600020905b815481529060010190602001808311611efc57829003601f168201915b50505050509150600a8681548110611f2d57fe5b90600052602060002090600502016004018054600181600116156101000203166002900480601f016020809104026020016040519081016040528092919081815260200182805460018160011615610100020316600290048015611fd25780601f10611fa757610100808354040283529160200191611fd2565b820191906000526020600020905b815481529060010190602001808311611fb557829003601f168201915b5050505050905091939590929450565b600a8181548110611fef57fe5b9060005260206000209060050201600091509050806000018054600181600116156101000203166002900480601f01602080910402602001604051908101604052809291908181526020018280546001816001161561010002031660029004801561209b5780601f106120705761010080835404028352916020019161209b565b820191906000526020600020905b81548152906001019060200180831161207e57829003601f168201915b505050505090806001018054600181600116156101000203166002900480601f0160208091040260200160405190810160405280929190818152602001828054600181600116156101000203166002900480156121395780601f1061210e57610100808354040283529160200191612139565b820191906000526020600020905b81548152906001019060200180831161211c57829003601f168201915b505050505090806002018054600181600116156101000203166002900480601f0160208091040260200160405190810160405280929190818152602001828054600181600116156101000203166002900480156121d75780601f106121ac576101008083540402835291602001916121d7565b820191906000526020600020905b8154815290600101906020018083116121ba57829003601f168201915b505050505090806003018054600181600116156101000203166002900480601f0160208091040260200160405190810160405280929190818152602001828054600181600116156101000203166002900480156122755780601f1061224a57610100808354040283529160200191612275565b820191906000526020600020905b81548152906001019060200180831161225857829003601f168201915b505050505090806004018054600181600116156101000203166002900480601f0160208091040260200160405190810160405280929190818152602001828054600181600116156101000203166002900480156123135780601f106122e857610100808354040283529160200191612313565b820191906000526020600020905b8154815290600101906020018083116122f657829003601f168201915b5050505050905085565b600061234d82604051806060016040528060298152602001613dea6029913960026130bc9092919063ffffffff16565b9050919050565b606060098054600181600116156101000203166002900480601f0160208091040260200160405190810160405280929190818152602001828054600181600116156101000203166002900480156123ec5780601f106123c1576101008083540402835291602001916123ec565b820191906000526020600020905b8154815290600101906020018083116123cf57829003601f168201915b5050505050905090565b60008073ffffffffffffffffffffffffffffffffffffffff168273ffffffffffffffffffffffffffffffffffffffff16141561247d576040517f08c379a000000000000000000000000000000000000000000000000000000000815260040180806020018281038252602a815260200180613dc0602a913960400191505060405180910390fd5b6124c4600160008473ffffffffffffffffffffffffffffffffffffffff1673ffffffffffffffffffffffffffffffffffffffff1681526020019081526020016000206130db565b9050919050565b600b6020528060005260406000206000915054906101000a900473ffffffffffffffffffffffffffffffffffffffff1681565b606060078054600181600116156101000203166002900480601f0160208091040260200160405190810160405280929190818152602001828054600181600116156101000203166002900480156125965780601f1061256b57610100808354040283529160200191612596565b820191906000526020600020905b81548152906001019060200180831161257957829003601f168201915b5050505050905090565b6125a8612c66565b73ffffffffffffffffffffffffffffffffffffffff168273ffffffffffffffffffffffffffffffffffffffff161415612649576040517f08c379a00000000000000000000000000000000000000000000000000000000081526004018080602001828103825260198152602001807f4552433732313a20617070726f766520746f2063616c6c65720000000000000081525060200191505060405180910390fd5b8060056000612656612c66565b73ffffffffffffffffffffffffffffffffffffffff1673ffffffffffffffffffffffffffffffffffffffff16815260200190815260200160002060008473ffffffffffffffffffffffffffffffffffffffff1673ffffffffffffffffffffffffffffffffffffffff16815260200190815260200160002060006101000a81548160ff0219169083151502179055508173ffffffffffffffffffffffffffffffffffffffff16612703612c66565b73ffffffffffffffffffffffffffffffffffffffff167f17307eab39ab6107e8899845ad3d59bd9653f200f220920489ca2b5937696c3183604051808215151515815260200191505060405180910390a35050565b612769612763612c66565b83612d3c565b6127be576040517f08c379a0000000000000000000000000000000000000000000000000000000008152600401808060200182810382526031815260200180613eda6031913960400191505060405180910390fd5b6127ca848484846130f0565b50505050565b6000600a80549050905090565b6000816040516020018082805190602001908083835b6020831061281657805182526020820191506020810190506020830392506127f3565b6001836020036101000a03801982511681845116808217855250505050505090500191505060405160208183030381529060405280519060200120836040516020018082805190602001908083835b602083106128885780518252602082019150602081019050602083039250612865565b6001836020036101000a0380198251168184511680821785525050505050509050019150506040516020818303038152906040528051906020012014905092915050565b60606128d782612c49565b61292c576040517f08c379a000000000000000000000000000000000000000000000000000000000815260040180806020018281038252602f815260200180613e8a602f913960400191505060405180910390fd5b6060600860008481526020019081526020016000208054600181600116156101000203166002900480601f0160208091040260200160405190810160405280929190818152602001828054600181600116156101000203166002900480156129d55780601f106129aa576101008083540402835291602001916129d5565b820191906000526020600020905b8154815290600101906020018083116129b857829003601f168201915b50505050509050600060098054600181600116156101000203166002900490501415612a045780915050612bb0565b600081511115612add576009816040516020018083805460018160011615610100020316600290048015612a6f5780601f10612a4d576101008083540402835291820191612a6f565b820191906000526020600020905b815481529060010190602001808311612a5b575b505082805190602001908083835b60208310612aa05780518252602082019150602081019050602083039250612a7d565b6001836020036101000a03801982511681845116808217855250505050505090500192505050604051602081830303815290604052915050612bb0565b6009612ae884613162565b6040516020018083805460018160011615610100020316600290048015612b465780601f10612b24576101008083540402835291820191612b46565b820191906000526020600020905b815481529060010190602001808311612b32575b505082805190602001908083835b60208310612b775780518252602082019150602081019050602083039250612b54565b6001836020036101000a038019825116818451168082178552505050505050905001925050506040516020818303038152906040529150505b919050565b6000600560008473ffffffffffffffffffffffffffffffffffffffff1673ffffffffffffffffffffffffffffffffffffffff16815260200190815260200160002060008373ffffffffffffffffffffffffffffffffffffffff1673ffffffffffffffffffffffffffffffffffffffff16815260200190815260200160002060009054906101000a900460ff16905092915050565b6000612c5f82600261329290919063ffffffff16565b9050919050565b600033905090565b816004600083815260200190815260200160002060006101000a81548173ffffffffffffffffffffffffffffffffffffffff021916908373ffffffffffffffffffffffffffffffffffffffff160217905550808273ffffffffffffffffffffffffffffffffffffffff16612ce18361231d565b73ffffffffffffffffffffffffffffffffffffffff167f8c5be1e5ebec7d5bd14f71427d1e84f3dd0314c0f7b2291e5b200ac8c7c3b92560405160405180910390a45050565b6000612d35826000016132ac565b9050919050565b6000612d4782612c49565b612d9c576040517f08c379a000000000000000000000000000000000000000000000000000000000815260040180806020018281038252602c815260200180613d5c602c913960400191505060405180910390fd5b6000612da78361231d565b90508073ffffffffffffffffffffffffffffffffffffffff168473ffffffffffffffffffffffffffffffffffffffff161480612e1657508373ffffffffffffffffffffffffffffffffffffffff16612dfe84611888565b73ffffffffffffffffffffffffffffffffffffffff16145b80612e275750612e268185612bb5565b5b91505092915050565b8273ffffffffffffffffffffffffffffffffffffffff16612e508261231d565b73ffffffffffffffffffffffffffffffffffffffff1614612ebc576040517f08c379a0000000000000000000000000000000000000000000000000000000008152600401808060200182810382526029815260200180613e616029913960400191505060405180910390fd5b600073ffffffffffffffffffffffffffffffffffffffff168273ffffffffffffffffffffffffffffffffffffffff161415612f42576040517f08c379a0000000000000000000000000000000000000000000000000000000008152600401808060200182810382526024815260200180613d386024913960400191505060405180910390fd5b612f4d8383836132bd565b612f58600082612c6e565b612fa981600160008673ffffffffffffffffffffffffffffffffffffffff1673ffffffffffffffffffffffffffffffffffffffff1681526020019081526020016000206132c290919063ffffffff16565b50612ffb81600160008573ffffffffffffffffffffffffffffffffffffffff1673ffffffffffffffffffffffffffffffffffffffff1681526020019081526020016000206132dc90919063ffffffff16565b50613012818360026132f69092919063ffffffff16565b50808273ffffffffffffffffffffffffffffffffffffffff168473ffffffffffffffffffffffffffffffffffffffff167fddf252ad1be2c89b69c2b068fc378daa952ba7f163c4a11628f55a4df523b3ef60405160405180910390a4505050565b6000613082836000018361332b565b60001c905092915050565b6000806000806130a086600001866133ae565b915091508160001c8160001c8090509350935050509250929050565b60006130cf846000018460001b84613447565b60001c90509392505050565b60006130e98260000161353d565b9050919050565b6130fb848484612e30565b6131078484848461354e565b61315c576040517f08c379a0000000000000000000000000000000000000000000000000000000008152600401808060200182810382526032815260200180613d066032913960400191505060405180910390fd5b50505050565b606060008214156131aa576040518060400160405280600181526020017f3000000000000000000000000000000000000000000000000000000000000000815250905061328d565b600082905060005b600082146131d4578080600101915050600a82816131cc57fe5b0491506131b2565b6060816040519080825280601f01601f1916602001820160405280156132095781602001600182028038833980820191505090505b50905060006001830390508593505b6000841461328557600a848161322a57fe5b0660300160f81b8282806001900393508151811061324457fe5b60200101907effffffffffffffffffffffffffffffffffffffffffffffffffffffffffffff1916908160001a905350600a848161327d57fe5b049350613218565b819450505050505b919050565b60006132a4836000018360001b613793565b905092915050565b600081600001805490509050919050565b505050565b60006132d4836000018360001b6137b6565b905092915050565b60006132ee836000018360001b61389e565b905092915050565b6000613322846000018460001b8473ffffffffffffffffffffffffffffffffffffffff1660001b61390e565b90509392505050565b60008183600001805490501161338c576040517f08c379a0000000000000000000000000000000000000000000000000000000008152600401808060200182810382526022815260200180613ce46022913960400191505060405180910390fd5b82600001828154811061339b57fe5b9060005260206000200154905092915050565b60008082846000018054905011613410576040517f08c379a0000000000000000000000000000000000000000000000000000000008152600401808060200182810382526022815260200180613e136022913960400191505060405180910390fd5b600084600001848154811061342157fe5b906000526020600020906002020190508060000154816001015492509250509250929050565b6000808460010160008581526020019081526020016000205490506000811415839061350e576040517f08c379a00000000000000000000000000000000000000000000000000000000081526004018080602001828103825283818151815260200191508051906020019080838360005b838110156134d35780820151818401526020810190506134b8565b50505050905090810190601f1680156135005780820380516001836020036101000a031916815260200191505b509250505060405180910390fd5b5084600001600182038154811061352157fe5b9060005260206000209060020201600101549150509392505050565b600081600001805490509050919050565b600061356f8473ffffffffffffffffffffffffffffffffffffffff166139ea565b61357c576001905061378b565b606061371263150b7a0260e01b613591612c66565b888787604051602401808573ffffffffffffffffffffffffffffffffffffffff1673ffffffffffffffffffffffffffffffffffffffff1681526020018473ffffffffffffffffffffffffffffffffffffffff1673ffffffffffffffffffffffffffffffffffffffff16815260200183815260200180602001828103825283818151815260200191508051906020019080838360005b83811015613641578082015181840152602081019050613626565b50505050905090810190601f16801561366e5780820380516001836020036101000a031916815260200191505b5095505050505050604051602081830303815290604052907bffffffffffffffffffffffffffffffffffffffffffffffffffffffff19166020820180517bffffffffffffffffffffffffffffffffffffffffffffffffffffffff8381831617835250505050604051806060016040528060328152602001613d06603291398773ffffffffffffffffffffffffffffffffffffffff166139fd9092919063ffffffff16565b9050600081806020019051602081101561372b57600080fd5b8101908080519060200190929190505050905063150b7a0260e01b7bffffffffffffffffffffffffffffffffffffffffffffffffffffffff1916817bffffffffffffffffffffffffffffffffffffffffffffffffffffffff191614925050505b949350505050565b600080836001016000848152602001908152602001600020541415905092915050565b60008083600101600084815260200190815260200160002054905060008114613892576000600182039050600060018660000180549050039050600086600001828154811061380157fe5b906000526020600020015490508087600001848154811061381e57fe5b906000526020600020018190555060018301876001016000838152602001908152602001600020819055508660000180548061385657fe5b60019003818190600052602060002001600090559055866001016000878152602001908152602001600020600090556001945050505050613898565b60009150505b92915050565b60006138aa8383613a15565b613903578260000182908060018154018082558091505060019003906000526020600020016000909190919091505582600001805490508360010160008481526020019081526020016000208190555060019050613908565b600090505b92915050565b60008084600101600085815260200190815260200160002054905060008114156139b5578460000160405180604001604052808681526020018581525090806001815401808255809150506001900390600052602060002090600202016000909190919091506000820151816000015560208201518160010155505084600001805490508560010160008681526020019081526020016000208190555060019150506139e3565b828560000160018303815481106139c857fe5b90600052602060002090600202016001018190555060009150505b9392505050565b600080823b905060008111915050919050565b6060613a0c8484600085613a38565b90509392505050565b600080836001016000848152602001908152602001600020541415905092915050565b6060613a43856139ea565b613ab5576040517f08c379a000000000000000000000000000000000000000000000000000000000815260040180806020018281038252601d8152602001807f416464726573733a2063616c6c20746f206e6f6e2d636f6e747261637400000081525060200191505060405180910390fd5b600060608673ffffffffffffffffffffffffffffffffffffffff1685876040518082805190602001908083835b60208310613b055780518252602082019150602081019050602083039250613ae2565b6001836020036101000a03801982511681845116808217855250505050505090500191505060006040518083038185875af1925050503d8060008114613b67576040519150601f19603f3d011682016040523d82523d6000602084013e613b6c565b606091505b50915091508115613b81578092505050613c36565b600081511115613b945780518082602001fd5b836040517f08c379a00000000000000000000000000000000000000000000000000000000081526004018080602001828103825283818151815260200191508051906020019080838360005b83811015613bfb578082015181840152602081019050613be0565b50505050905090810190601f168015613c285780820380516001836020036101000a031916815260200191505b509250505060405180910390fd5b949350505050565b828054600181600116156101000203166002900490600052602060002090601f016020900481019282601f10613c7f57805160ff1916838001178555613cad565b82800160010185558215613cad579182015b82811115613cac578251825591602001919060010190613c91565b5b509050613cba9190613cbe565b5090565b613ce091905b80821115613cdc576000816000905550600101613cc4565b5090565b9056fe456e756d657261626c655365743a20696e646578206f7574206f6620626f756e64734552433732313a207472616e7366657220746f206e6f6e20455243373231526563656976657220696d706c656d656e7465724552433732313a207472616e7366657220746f20746865207a65726f20616464726573734552433732313a206f70657261746f7220717565727920666f72206e6f6e6578697374656e7420746f6b656e4552433732313a20617070726f76652063616c6c6572206973206e6f74206f776e6572206e6f7220617070726f76656420666f7220616c6c4552433732313a2062616c616e636520717565727920666f7220746865207a65726f20616464726573734552433732313a206f776e657220717565727920666f72206e6f6e6578697374656e7420746f6b656e456e756d657261626c654d61703a20696e646578206f7574206f6620626f756e64734552433732313a20617070726f76656420717565727920666f72206e6f6e6578697374656e7420746f6b656e4552433732313a207472616e73666572206f6620746f6b656e2074686174206973206e6f74206f776e4552433732314d657461646174613a2055524920717565727920666f72206e6f6e6578697374656e7420746f6b656e4552433732313a20617070726f76616c20746f2063757272656e74206f776e65724552433732313a207472616e736665722063616c6c6572206973206e6f74206f776e6572206e6f7220617070726f766564a2646970667358221220f5e42d36f317cdbf4042bb9a085de9fcf1ed1a54fbbea1b3f0b4649d3f8e413064736f6c63430006020033",
  "source": "pragma solidity ^0.6.2;\n\nimport \"/usr/lib/node_modules/@openzeppelin/contracts/token/ERC721/ERC721.sol\";\n\n\ncontract BatteryEvalContract is ERC721 {\n\n    constructor() ERC721(\"BatteryEvalContract\", \"BEC\") public {\n\n    }\n\n    // Battery   \n    event NewBattery(uint batteryId, string batteryOwner, string batteryManuFacturer, string batteryModelName, string batteryManuFactureDate, string certiFileName);\n\n    struct BatteryEvalInfo {   // , , , , \n        string batteryOwner;\n        string batteryManuFacturer;\n        string batteryModelName;\n        string batteryManuFactureDate;\n        string certiFileName;\n\n        //           \n        // AI    LIST( Array)  ,     \n        // ->  ,  upload image   \n    }\n\n    // Baby  \n    BatteryEvalInfo[] public batteries;\n\n    // babies Index  -> Baby  Address \n    mapping (uint => address) public batteryToOwner;\n\n    //   -> babies Index \n    mapping (string => uint) public filenameToBatteryEvalResult;\n\n    // Baby \n    function addBatteryEvalInfo(string memory _owner, string memory _manufacturer, string memory _modelName, string memory _manufactureDate, string memory _certiFile) public {\n        //  -1  ? ->  push     push         return  .\n        // uint batteryId = batteries.push(BatteryEvalInfo(_owner, _manufacturer, _modelName, _manufactureDate, _certiFile));\n\n        batteries.push(BatteryEvalInfo(_owner, _manufacturer, _modelName, _manufactureDate, _certiFile));\n\n        uint batteryId = batteries.length - 1;\n        \n        batteryToOwner[batteryId] = msg.sender;   // babyToOwner \n        filenameToBatteryEvalResult[_certiFile] = batteryId;   // imageToBaby \n        emit NewBattery(batteryId, _owner, _manufacturer, _modelName, _manufactureDate, _certiFile);  //  \n    }\n\n    // babies length \n    function getBatteriesCount() public view returns (uint count) {\n        return batteries.length;\n    }\n\n    // babies Index  ->  Baby      \n    function getBatteryInfoById(uint _batteryId) public view returns (\n        string memory bOnwer, string memory bManuFacturer, string memory bModelName, string memory bManuFactureDate, string memory cFileName) {\n        // babies Indes babies length  \n        require(_batteryId < batteries.length, \"Wrong ID value.\");\n\n        //  \n        bOnwer = batteries[_batteryId].batteryOwner;\n        bManuFacturer = batteries[_batteryId].batteryManuFacturer;\n        bModelName = batteries[_batteryId].batteryModelName;\n        bManuFactureDate = batteries[_batteryId].batteryManuFactureDate;\n        cFileName = batteries[_batteryId].certiFileName;\n    }\n\n    //   ->  Baby      \n    // function getBabyByFilename(string memory _filename) public view returns (\n    //     string memory types, string memory filename, string memory name, string memory phoneNumber, string memory etcSpfeatr, uint age) {\n    //     //      \n    //     uint _id = filenameToBaby[_filename];\n    //     require(compareStrings(_filename, babies[_id].filename), \"The filename entered does not exist.\");\n    //     //  \n    //     types = babies[_id].types;\n    //     filename = babies[_id].filename;\n    //     name = babies[_id].name;\n    //     phoneNumber = babies[_id].phoneNumber;\n    //     etcSpfeatr = babies[_id].etcSpfeatr;\n    //     age = babies[_id].age;\n    // }\n\n    // string   \n    function compareStrings (string memory a, string memory b) public pure returns (bool) {\n        return (keccak256(abi.encodePacked((a))) == keccak256(abi.encodePacked((b))) );\n    }\n}",
  "sourcePath": "/mnt/f/development/etherTruffleNetwork/contracts/BatteryEvalContract.sol",
  "compiler": {
    "name": "solc",
    "version": "0.6.2+commit.bacdbe57.Emscripten.clang"
  },
  "schemaVersion": "3.3.2",
  "updatedAt": "2020-11-16T10:13:55.531Z",
  "networkType": "ethereum",
  "devdoc": {
    "methods": {
      "approve(address,uint256)": {
        "details": "See {IERC721-approve}."
      },
      "balanceOf(address)": {
        "details": "See {IERC721-balanceOf}."
      },
      "baseURI()": {
        "details": "Returns the base URI set via {_setBaseURI}. This will be automatically added as a prefix in {tokenURI} to each token's URI, or to the token ID if no specific URI is set for that token ID."
      },
      "getApproved(uint256)": {
        "details": "See {IERC721-getApproved}."
      },
      "isApprovedForAll(address,address)": {
        "details": "See {IERC721-isApprovedForAll}."
      },
      "name()": {
        "details": "See {IERC721Metadata-name}."
      },
      "ownerOf(uint256)": {
        "details": "See {IERC721-ownerOf}."
      },
      "safeTransferFrom(address,address,uint256)": {
        "details": "See {IERC721-safeTransferFrom}."
      },
      "safeTransferFrom(address,address,uint256,bytes)": {
        "details": "See {IERC721-safeTransferFrom}."
      },
      "setApprovalForAll(address,bool)": {
        "details": "See {IERC721-setApprovalForAll}."
      },
      "supportsInterface(bytes4)": {
        "details": "See {IERC165-supportsInterface}.     * Time complexity O(1), guaranteed to always use less than 30 000 gas."
      },
      "symbol()": {
        "details": "See {IERC721Metadata-symbol}."
      },
      "tokenByIndex(uint256)": {
        "details": "See {IERC721Enumerable-tokenByIndex}."
      },
      "tokenOfOwnerByIndex(address,uint256)": {
        "details": "See {IERC721Enumerable-tokenOfOwnerByIndex}."
      },
      "tokenURI(uint256)": {
        "details": "See {IERC721Metadata-tokenURI}."
      },
      "totalSupply()": {
        "details": "See {IERC721Enumerable-totalSupply}."
      },
      "transferFrom(address,address,uint256)": {
        "details": "See {IERC721-transferFrom}."
      }
    }
  },
  "userdoc": {
    "methods": {}
  }
}